:100000000C9453000C947B000C947B000C947B00AC
:100010000C947B000C947B000C947B000C947B0074
:100020000C947B000C947B000C947B000C947B0064
:100030000C947B000C947B000C947B000C947B0054
:100040000C94F1030C947B000C94BF030C94990363
:100050000C947B000C947B000C947B000C947B0034
:100060000C947B000C947B0000000000250028000D
:100070002B0000000000240027002A0004040404D0
:100080000404040402020202020203030303030342
:10009000010204081020408001020408102001021F
:1000A000040810203B0411241FBECFEFD8E0DEBFB0
:1000B000CDBF25E0AAE7B4E001C01D92AA36B20781
:1000C000E1F714E0A0E0B1E0E6E9F1E102C005905B
:1000D0000D92AA37B107D9F710E0C3E5D0E004C00C
:1000E0002197FE010E94BE08C235D107C9F70E94C0
:1000F00080040C94C9080C940000E3E8F4E0A089A3
:10010000B18982E08C93A485B5851C92A685B785BC
:100110008FEC8C93108EA489B58986E08C93A2898C
:10012000B3898C9180618C93A289B3898C9188600A
:100130008C93A289B3898C9180688C930288F3890F
:10014000E02D80818F7D80830895CF92DF92EF92A2
:10015000FF920F931F932FB7F894C0907F04D09015
:100160008004E0908104F09082042FBFDC01CB0179
:100170008C0D9D1DAE1DBF1D4FB7F89400917F04DF
:100180001091800420918104309182044FBF0C159E
:100190001D052E053F0528F080179107A207B3071C
:1001A00058F71F910F91FF90EF90DF90CF90089537
:1001B000CF92DF92EF92FF920F931F93CF93DF9333
:1001C0006C017A018B01C0E0D0E0CE15DF0581F033
:1001D000D8016D918D01D601ED91FC910190F081D6
:1001E000E02DC6010995892B11F02196EECF7E01F5
:1001F000C701DF91CF911F910F91FF90EF90DF909A
:10020000CF900895089580E090E00895FC01538D0B
:10021000448D252F30E0842F90E0821B930B5417E0
:1002200010F0CF96089501970895FC01918D828D6D
:10023000981761F0828DDF01A80FB11D5D968C913A
:10024000928D9F5F9F73928F90E008958FEF9FEF45
:100250000895FC01918D828D981731F0828DE80F01
:10026000F11D858D90E008958FEF9FEF0895FC01BB
:10027000918D228D892F90E0805C9F4F821B910988
:100280008F739927089583E894E00E94370121E055
:10029000892B09F420E0822F0895FC01848DDF0171
:1002A000A80FB11DA35ABF4F2C91848D90E00196E9
:1002B0008F739927848FA689B7892C93A089B189D8
:1002C0008C91837080648C93938D848D981306C079
:1002D0000288F389E02D80818F7D80830895EF92DD
:1002E000FF920F931F93CF93DF93EC0181E0888FF0
:1002F0009B8D8C8D981305C0E889F989808185FDD7
:1003000026C0F62E0B8D10E00F5F1F4F0F731127C5
:10031000E02E8C8DE8120CC00FB607FCFACFE889EE
:10032000F989808185FFF5CFCE010E944D01F1CF83
:100330008B8DFE01E80FF11DE35AFF4FF0829FB74E
:10034000F8940B8FEA89FB89808180620AC09FB78D
:10035000F894EE89FF896083E889F9898081837048
:10036000806480839FBF81E090E0DF91CF911F91F7
:100370000F91FF90EF900895CF93DF93EC01888D5C
:100380008823C9F0EA89FB89808185FD05C0A88999
:10039000B9898C9186FD0FC00FB607FCF5CF80811F
:1003A00085FFF2CFA889B9898C9185FFEDCFCE0169
:1003B0000E944D01E7CFDF91CF91089580E090E05A
:1003C000892B29F00E94430181110C9400000895AB
:1003D000CF93DF9390E0FC01E057FF4F2491FC01A5
:1003E000E458FF4F8491882361F190E0880F991FB2
:1003F000FC01EE58FF4FC591D491FC01E859FF4F25
:10040000A591B491611109C09FB7F8948881209596
:1004100082238883EC912E230BC0623061F49FB756
:10042000F8948881322F309583238883EC912E2B8A
:100430002C939FBF06C08FB7F894E8812E2B28839A
:100440008FBFDF91CF9108958E3008F08E50877066
:10045000806480937C0080917A00806480937A002D
:1004600080917A0086FDFCCF809178002091790000
:1004700090E0922B08953FB7F89480917B0490917F
:100480007C04A0917D04B0917E0426B5A89B05C094
:100490002F3F19F00196A11DB11D3FBFBA2FA92F03
:1004A000982F8827820F911DA11DB11DBC01CD0180
:1004B00042E0660F771F881F991F4A95D1F708956C
:1004C0002F923F924F925F926F927F928F929F9264
:1004D000AF92BF92CF92DF92EF92FF920F931F9352
:1004E000CF93DF9300D000D000D0CDB7DEB79E838E
:1004F0008D837B01FB0100811181000F111F080F0B
:10050000191FC280D380CC0CDD1CC80ED91E2480DC
:100510003580220C331C280E391E86819781880F66
:10052000991F2D813E81280F391F3A8329838D81A0
:100530009E818E559E4F9C838B83F10162857385CE
:10054000072E000C880B990B0E94E60620E030E095
:1005500040E85EE30E9421074B015C01E981FA81DA
:1005600062857385072E000C880B990B0E94E606A6
:1005700020E030E040E45FE30E9421079B01AC01F2
:10058000C501B4010E94E0074B015C01F8016285DE
:100590007385072E000C880B990B0E94E60620E05D
:1005A00030E040E85EE30E9421072B013C01F601A8
:1005B00062857385072E000C880B990B0E94E60656
:1005C00020E030E040E45FE30E9421079B01AC01A2
:1005D000C301B2010E94E0079B01AC01C501B40157
:1005E0000E94DF07EB81FC816083718382839383A8
:1005F000F801EE52FF4F60817181072E000C880BCD
:10060000990B0E94E60620E030E040E85EE30E949D
:1006100021074B015C01F601EE52FF4F60817181B1
:10062000072E000C880B990B0E94E60620E030E0B4
:1006300040E45FE30E9421079B01AC01C501B401C6
:100640000E94E0074B015C01F70160877187828798
:100650009387F101EE52FF4F60817181072E000CEC
:10066000880B990B0E94E60620E030E040E85EE34C
:100670000E9421072B013C01E981FA81EE52FF4FD4
:1006800060817181072E000C880B990B0E94E60691
:1006900020E030E040E45FE30E9421079B01AC01D1
:1006A000C301B2010E94E007F7016487758786875E
:1006B00097872D813E812A553E4F3A832983A50194
:1006C00094010E94DF07E981FA816083718382834C
:1006D000938326960FB6F894DEBF0FBECDBFDF9191
:1006E000CF911F910F91FF90EF90DF90CF90BF902F
:1006F000AF909F908F907F906F905F904F903F90C2
:100700002F9008950E94C4086115710579F0FB01CE
:1007100001900020E9F73197AF01461B570BDC0130
:10072000ED91FC910280F381E02D099480E090E04E
:1007300008951F920F920FB60F9211242F933F939B
:100740004F935F936F937F938F939F93AF93BF93D9
:10075000EF93FF9383E894E00E944D01FF91EF91A6
:10076000BF91AF919F918F917F916F915F914F91C9
:100770003F912F910F900FBE0F901F9018951F92D1
:100780000F920FB60F9211242F938F939F93EF9395
:10079000FF93E0919304F09194048081E091990497
:1007A000F0919A0482FD12C0908180919C048F5F29
:1007B0008F7320919D04821751F0E0919C04F0E02A
:1007C000ED57FB4F958F80939C0401C08081FF9172
:1007D000EF919F918F912F910F900FBE0F901F90CF
:1007E00018951F920F920FB60F9211242F933F93DB
:1007F0008F939F93AF93BF9380917F0490918004D8
:10080000A0918104B091820430917A0423E0230FF7
:100810002D3720F40196A11DB11D05C026E8230F38
:100820000296A11DB11D20937A0480937F049093BA
:100830008004A0938104B093820480917B04909102
:100840007C04A0917D04B0917E040196A11DB11D90
:1008500080937B0490937C04A0937D04B0937E04EA
:10086000BF91AF919F918F913F912F910F900FBEAC
:100870000F901F901895E3E8F4E01382128288EE3F
:1008800093E0A0E0B0E084839583A683B78388E5F6
:1008900094E09183808385EC90E09587848784EC55
:1008A00090E09787868780EC90E0918B808B81EC3D
:1008B00090E0938B828B82EC90E0958B848B86EC1E
:1008C00090E0978B868B118E128E138E148EE0E241
:1008D000F5E016821782108611861286138614861A
:1008E000158616861786108A118A128A138A148A28
:1008F000158A81E090E090936905809368050895DA
:10090000CF93DF93CDB7DEB766970FB6F894DEBF0F
:100910000FBECDBF789484B5826084BD84B58160FC
:1009200084BD85B5826085BD85B5816085BD8091BA
:100930006E00816080936E00109281008091810032
:10094000826080938100809181008160809381002A
:10095000809180008160809380008091B1008460EC
:100960008093B1008091B00081608093B00080914D
:100970007A00846080937A0080917A00826080930C
:100980007A0080917A00816080937A0080917A0069
:10099000806880937A001092C100109264051092D2
:1009A0006505109266051092670510922205109257
:1009B0002305109224051092250568EB7BE080E06A
:1009C00090E00E94A50083E894E0909363058093F3
:1009D00062050E947D002FB7F89480917F0490916A
:1009E0008004A0918104B09182042FBF80932205DE
:1009F00090932305A0932405B093250566E674E043
:100A000080916205909163050E9484036AE070E022
:100A100080E090E00E94A50081E08093360560E0D0
:100A20008EE00E94E80161E087E00E94E80160E05A
:100A30008FE00E94E80161E088E00E94E8010E94E6
:100A40007D00CE0101961C0104EB12E0AAE0B1E0AA
:100A5000BE8BAD8B6D0178018EE00E942402F70100
:100A6000819391937F018FE00E942402D6018D93A0
:100A70009D936D018090680590906905092C000C8C
:100A8000AA08BB080E943B022B013C01811491047F
:100A9000A104B104F1F00E943B02DC01CB018419F6
:100AA0009509A609B709883E9340A105B10570F3E1
:100AB000B1E08B1A9108A108B108E8EE4E0EE3E010
:100AC0005E1E611C711C81149104A104B10419F70C
:100AD000DDCF8EE00E942402F701EA53FF4F91839D
:100AE00080838FE00E942402F601EA53FF4F918336
:100AF00080838CE793E08E159F0509F0ADCF94E0DD
:100B0000E92EF12C68E774E083E894E00E94840306
:100B100091E0E91AF108B1F765E774E083E894E041
:100B20000E94840384E0E82EF12C68E774E083E8F7
:100B300094E00E948403A1E0EA1AF108B1F765E7A6
:100B400074E083E894E00E94840383E690E0EAEA9C
:100B5000F2E041E050E020E030E02817390794F45B
:100B6000628573852F5F3F4FA485B585A617B707AC
:100B700014F03296F2CFB387A2877587648740E07E
:100B800050E0F7CF452B11F4019709F783E690E089
:100B9000ECE7F3E041E050E020E030E028173907CF
:100BA000A4F4619171912F5F3F4FE080F180E616D0
:100BB000F706A4F7AF0142505109DA01ED92FC9219
:100BC0007183608340E050E0E9CF452B11F4019739
:100BD000F9F683E690E0E0E0F1E041E050E020E06B
:100BE00030E02817390794F4628573852F5F3F4FF3
:100BF000A485B585A617B70714F03296F2CFB38750
:100C0000A2877587648740E050E0F7CF452B11F449
:100C1000019709F783E690E0E2EDF1E041E050E072
:100C200020E030E028173907A4F4619171912F5F1B
:100C30003F4FE080F180E616F706A4F7AF0142507F
:100C40005109DA01ED92FC927183608340E050E03B
:100C5000E9CF452B11F40197F9F680904404909068
:100C60004504A0904604B0904704C0904804D0903A
:100C70004904E0904A04F0904B0440909A0250904E
:100C80009B0260909C0270909D02F80161917191AD
:100C90008F01072E000C880B990B0E94E6069B0122
:100CA000AC01C501B4010E94E0074B015C01F801F1
:100CB000EA53FF4F60817181072E000C880B990B5E
:100CC0000E94E6069B01AC01C701B6010E94E00745
:100CD0006B017C01AD89BE896D917D91BE8BAD8B21
:100CE000072E000C880B990B0E94E606698B7A8B05
:100CF0008B8B9C8BA30192010E94E00729893A8982
:100D00004B895C890E94E0072B013C01ECE7F3E092
:100D1000E017F10709F0B9CF20E030E048EC52E4E9
:100D2000C501B4010E944C086093440470934504CB
:100D3000809346049093470420E030E048EC52E46E
:100D4000C701B6010E944C0860934804709349049F
:100D500080934A0490934B0420E030E048EC52E446
:100D6000C301B2010E944C0820E030E048EC52E49C
:100D70000E944C0860939A0270939B0280939C029D
:100D800090939D02D101E0E11D92EA95E9F789E196
:100D900090E09A838983AAE1B0E0BC83AB83EBE463
:100DA000F0E0FE83ED838CE490E098878F83B101BF
:100DB0008AEA92E00E946002B10180E091E00E9424
:100DC00060020E94DE0140CEE89409C097FB3EF429
:100DD00090958095709561957F4F8F4F9F4F992388
:100DE000A9F0F92F96E9BB279395F6958795779506
:100DF0006795B795F111F8CFFAF4BB0F11F460FFC6
:100E00001BC06F5F7F4F8F4F9F4F16C0882311F01D
:100E100096E911C0772321F09EE8872F762F05C031
:100E2000662371F096E8862F70E060E02AF09A95CC
:100E3000660F771F881FDAF7880F9695879597F9C1
:100E400008950E9434070C94A5070E94970738F074
:100E50000E949E0720F0952311F00C948E070C94AD
:100E6000940711240C94D9070E94B60770F3959F3C
:100E7000C1F3950F50E0551F629FF001729FBB2791
:100E8000F00DB11D639FAA27F00DB11DAA1F649F2D
:100E90006627B00DA11D661F829F2227B00DA11DE0
:100EA000621F739FB00DA11D621F839FA00D611D66
:100EB000221F749F3327A00D611D231F849F600D87
:100EC000211D822F762F6A2F11249F5750409AF0B0
:100ED000F1F088234AF0EE0FFF1FBB1F661F771F3C
:100EE000881F91505040A9F79E3F510580F00C9407
:100EF0008E070C94D9075F3FE4F3983ED4F38695B0
:100F000077956795B795F795E7959F5FC1F7FE2BA6
:100F1000880F911D9695879597F9089597F99F6782
:100F200080E870E060E008959FEF80EC0895002471
:100F30000A941616170618060906089500240A943E
:100F400012161306140605060895092E0394000CC4
:100F500011F4882352F0BB0F40F4BF2B11F460FF53
:100F600004C06F5F7F4F8F4F9F4F089557FD90587C
:100F7000440F551F59F05F3F71F04795880F97FB5D
:100F8000991F61F09F3F79F0879508951216130617
:100F90001406551FF2CF4695F1DF08C01616170646
:100FA0001806991FF1CF869571056105089408957B
:100FB000E894BB2766277727CB0197F90895505807
:100FC000BB27AA270E94F7070C94A5070E94970742
:100FD00038F00E949E0720F039F49F3F19F426F460
:100FE0000C9494070EF4E095E7FB0C948E07E92F20
:100FF0000E94B60758F3BA1762077307840795076C
:1010000020F079F4A6F50C94D8070EF4E0950B2E99
:10101000BA2FA02D0B01B90190010C01CA01A0014A
:101020001124FF27591B99F0593F50F4503E68F1A5
:101030001A16F040A22F232F342F4427585FF3CFE6
:10104000469537952795A795F0405395C9F77EF4B7
:101050001F16BA0B620B730B840BBAF09150A1F000
:10106000FF0FBB1F661F771F881FC2F70EC0BA0F86
:10107000621F731F841F48F4879577956795B7950E
:10108000F7959E3F08F0B0CF9395880F08F0992709
:10109000EE0F9795879508950E9460080C94A50718
:1010A0000E949E0758F00E94970740F029F45F3F86
:1010B00029F00C948E0751110C94D9070C949407C5
:1010C0000E94B60768F39923B1F3552391F3951B5A
:1010D000550BBB27AA2762177307840738F09F5F59
:1010E0005F4F220F331F441FAA1FA9F335D00E2EC6
:1010F0003AF0E0E832D091505040E695001CCAF733
:101100002BD0FE2F29D0660F771F881FBB1F2617F5
:1011100037074807AB07B0E809F0BB0B802DBF01CC
:10112000FF2793585F4F3AF09E3F510578F00C949B
:101130008E070C94D9075F3FE4F3983ED4F386956D
:1011400077956795B795F7959F5FC9F7880F911DBC
:101150009695879597F90895E1E0660F771F881FA8
:10116000BB1F621773078407BA0720F0621B730B5B
:10117000840BBA0BEE1F88F7E0950895EE0FFF1F62
:101180000590F491E02D099481E090E0F8940C949E
:06119000C908F894FFCF2E
:1011960073656E736F72320000000000000000007D
:1011A6000000000000000000000000000000000039
:1011B6000000000000000000000000000000000029
:1011C6000000000000000000000000000000000019
:1011D6000000000000000000000000000000000009
:1011E60000000000000000000000000000000000F9
:1011F60000000000000000000000000000000000E9
:1012060000000000000000000000000000000000D8
:1012160000000000000000000000000000000000C8
:1012260000000000000000000000000000000000B8
:1012360000000000000000000000000000000000A8
:101246000000000000000000000000000000000098
:101256000000000000000000000000000000000088
:101266000000000000000000000000000000000078
:101276000000000000000000000000000000000068
:101286000000000000000000000000000000000058
:101296000000000000000000000000000000000048
:1012A6000000000000000000000000000000000038
:1012B6000000000000000000000000000000000028
:1012C6000000000000000000000000000000000018
:1012D6000000000000000000000000000000000008
:1012E60000000000000000000000000000000000F8
:1012F60000000000000000000000000000000000E8
:1013060000000000000000000000000000000000D7
:1013160000000000000000000000000000000000C7
:1013260000000000000000000000000000000000B7
:101336000000000000000000000073656E736F720D
:101346003100000000000000000000000000000066
:101356000000000000000000000000000000000087
:101366000000000000000000000000000000000077
:101376000000000000000000000000000000000067
:101386000000000000000000000000000000000057
:101396000000000000000000000000000000000047
:1013A6000000000000000000000000000000000037
:1013B6000000000000000000000000000000000027
:1013C6000000000000000000000000000000000017
:1013D6000000000000000000000000000000000007
:1013E60000000000000000000000000000000000F7
:1013F60000000000000000000000000000000000E7
:1014060000000000000000000000000000000000D6
:1014160000000000000000000000000000000000C6
:1014260000000000000000000000000000000000B6
:1014360000000000000000000000000000000000A6
:101446000000000000000000000000000000000096
:101456000000000000000000000000000000000086
:101466000000000000000000000000000000000076
:101476000000000000000000000000000000000066
:101486000000000000000000000000000000000056
:101496000000000000000000000000000000000046
:1014A6000000000000000000000000000000000036
:1014B6000000000000000000000000000000000026
:1014C6000000000000000000000000000000000016
:1014D6000000000000000000000000000000000006
:1014E60000000000000000006F01D8000601BC01EA
:1014F600370115012901564D4450565F317C315F45
:0A150600564D4450560D0A007E00B9
:107E0000112484B714BE81FFF0D085E080938100F7
:107E100082E08093C00088E18093C10086E0809377
:107E2000C20080E18093C4008EE0C9D0259A86E02C
:107E300020E33CEF91E0309385002093840096BBD3
:107E4000B09BFECF1D9AA8958150A9F7CC24DD24C4
:107E500088248394B5E0AB2EA1E19A2EF3E0BF2EE7
:107E6000A2D0813461F49FD0082FAFD0023811F036
:107E7000013811F484E001C083E08DD089C08234E0
:107E800011F484E103C0853419F485E0A6D080C0E4
:107E9000853579F488D0E82EFF2485D0082F10E0AE
:107EA000102F00270E291F29000F111F8ED06801E7
:107EB0006FC0863521F484E090D080E0DECF843638
:107EC00009F040C070D06FD0082F6DD080E0C81688
:107ED00080E7D80618F4F601B7BEE895C0E0D1E017
:107EE00062D089930C17E1F7F0E0CF16F0E7DF06D8
:107EF00018F0F601B7BEE89568D007B600FCFDCFD4
:107F0000A601A0E0B1E02C9130E011968C91119780
:107F100090E0982F8827822B932B1296FA010C0160
:107F200087BEE89511244E5F5F4FF1E0A038BF0790
:107F300051F7F601A7BEE89507B600FCFDCF97BE46
:107F4000E89526C08437B1F42ED02DD0F82E2BD052
:107F50003CD0F601EF2C8F010F5F1F4F84911BD097
:107F6000EA94F801C1F70894C11CD11CFA94CF0C13
:107F7000D11C0EC0853739F428D08EE10CD085E9AC
:107F80000AD08FE07ACF813511F488E018D01DD067
:107F900080E101D065CF982F8091C00085FFFCCF94
:107FA0009093C60008958091C00087FFFCCF809118
:107FB000C00084FD01C0A8958091C6000895E0E648
:107FC000F0E098E1908380830895EDDF803219F02E
:107FD00088E0F5DFFFCF84E1DECF1F93182FE3DFCA
:107FE0001150E9F7F2DF1F91089580E0E8DFEE27F6
:047FF000FF270994CA
:027FFE00040479
:0400000300007E007B
:00000001FF